:020000041000EA
:10000000002008205D0100101301001019F60010F7
:100010001101001011010010110100101101001058
:100020001101001011010010110100101701001042
:100030001101001011010010190100101B01001026
:100040001D0100101D0100101D0100101D010010F8
:100050001D0100101D0100101D0100101D010010E8
:100060001D0100101D0100101D0100101D010010D8
:100070001D0100101D0100101D0100101D010010C8
:100080001D0100101D0100101D0100101D010010B8
:100090001D0100101D0100101D0100101D010010A8
:1000A0001D0100101D0100101D0100101D01001098
:1000B0001D0100101D0100101D0100101D01001088
:1000C0001D0100101D0100101D0100101D01001078
:1000D0001D0100101D0100101D0100101D01001068
:1000E0001D0100101D0100101D0100101D01001058
:1000F0001D0100101D0100101D0100101D01001048
:100100001D0100101D0100101D0100101D01001037
:1001100000BE00BE00BE00BE00BE00BEEFF3058004
:10012000103800BEF2EB88716CC3021098C3021045
:10013000A801001090A31AE7D3DEFFFF42012110AF
:10014000FF01000010E90200793512AB4FF000000A
:100150002049086006C881F3088810474FF05040D6
:10016000006810B14FF00000F2E70FA40ECC002998
:1001700002D000F015F8F9E71749184A002000E00E
:1001800001C19142FCD1002080F30A8814498847BC
:10019000144988471449884700BEFDE701C901C2D8
:1001A0009A42FBD3704700BF98C302108801002019
:1001B0003828002048EA021000000820000008202B
:1001C00048EA02100010082000100820000000007B
:1001D0007047000008ED00E0382800207082002001
:1001E0005D3400103D02001055340010F8B500BF1A
:1001F000064B0749C91A891048BF0131491003D07D
:10020000044B0BB101481847704700BF3828002045
:10021000382800200000000008B5054B1BB1054937
:100220000548AFF30080BDE80840FFF7E1BF00BF1D
:1002300000000000748100205470011010B51720D8
:1002400000F05CF817234FF0010242EC4430002428
:1002500044EC40300FF0E0FF204610BD10B44FF4E6
:1002600080740C4B53F8202003EB8003C00082F015
:10027000400200F1804003F5805C02F0C00200F50E
:10028000203003F54053CCF8002041601C605DF83D
:10029000044B70470480034010B4084CC90041EA85
:1002A000820154F8202004EB8003514003F5805371
:1002B00001F00C015DF8044B1960704704800340A5
:1002C000054B53F8202003EB8003514001F001015E
:1002D00003F580531960704704800340064B53F8C0
:1002E000202003EB800382EA011202F0300203F5C2
:1002F00080531A60704700BF0480034030B44FF051
:10030000000343EC440043EC400005254FF48074A7
:100310000B4BC20053F8201003EB800081F040012A
:1003200002F1804303F5203301F0C00200F5805153
:1003300000F540500A605D60046030BC704700BF4B
:100340000480034010B44FF480711F240C4B53F809
:10035000202003EB8003C00082F0400200F18040C7
:1003600003F5805C02F0C00200F5203003F5405335
:10037000CCF8002044605DF8044B1960704700BF62
:10038000048003400FB400B583B0049C074803F019
:10039000DBF93CB105A92046019103F02BF8044894
:1003A00003F0D2F9012003F03DF800BF58700110AE
:1003B000B4750110EFF3108072B6064BD3E8CF1F6F
:1003C00001220029FAD1C3E8412F0029F6D1BFF359
:1003D0005F8F7047673400200023034AC2E88F3FD5
:1003E00080F31088704700BF6734002070B58646E0
:1003F000EFF3108572B6124CD4E8CF6F0120002EB7
:10040000FAD1C4E8460F002EF6D1BFF35F8F4FF04C
:10041000010CC80801F007030CFA03F31EF800C032
:100420001CEA030608D14CEA030C0EF800C0C4E82D
:100430008F6F85F3108870BD1046FFF7A3FF00BFD4
:1004400067340020F8B5EFF3108572B6234CD4E87A
:10045000CF7F0126002FFAD1C4E8476F002FF6D1D5
:10046000BFF35F8F9A4227D80126D70810F807E01C
:1004700002F0070C06FA0CFC1EEA0C0F00EBD20788
:100480000DD125E04FEAD20E10F80EE002F0070C75
:1004900006FA0CFC1EEA0C0F00EBD20718D0013252
:1004A0009342EFD24FF0FF300023C4E88F3F85F333
:1004B0001088984207DBF8BD0023C4E88F3F85F31E
:1004C00010884FF0FF300029F5D00698FFF75AFF4B
:1004D0004EEA0C0E104687F800E0E5E7673400208E
:1004E000044A1078431CDBB2182B28BF102313706A
:1004F000704700BFA81C002010B5054C82B0014613
:100500001F23182200940348FFF79CFF02B010BD80
:1005100068700110CC3A00204FF0E022936843F05D
:1005200000539360704700BF0021044B03F1200289
:10053000C3E88F1F01339342FAD170475C34002027
:100540004FF0E0234FF08032C3F80024C3F80424B6
:10055000C3F80824C3F80C24C3F81024C3F81424E7
:10056000C3F81824C3F81C24C3F82024C3F8242497
:10057000C3F82824C3F82C24C3F83024704700BFE4
:10058000012300F01F029340400941B1800000F1B7
:10059000604000F56140C0F8803103607047024A56
:1005A000203042F82030704700E100E00123064A85
:1005B000410952F8212000F01F008340134214BF6C
:1005C00001200020704700BF00E100E00122430944
:1005D000034900F01F008240403341F82320704758
:1005E00000E100E0064B10309B6853F8200028B172
:1005F000044BC01A2F288CBF00200120704700BF79
:1006000000ED00E0AC1C0020F8B50D46EFF31087BC
:1006100072B6124ED6E8CF2F0123002AFAD1C6E8CF
:10062000423F002AF6D1BFF35F8F0D4B00F110045B
:100630009B680C4A53F82430934203D0994201D06E
:1006400001F024F9064B9B6843F82450BFF35F8FF9
:100650000023C6E88F3F87F31088F8BD653400207B
:1006600000ED00E01D0100102DE9F04F81468B46A2
:10067000164683B0EFF3108372B6DFF8D0A1009373
:10068000DAE8CF1F01230029FAD1CAE8413F002947
:10069000F6D1BFF35F8F664B93F90040002CC0F298
:1006A000A080644D04EB440705EB870898F806101A
:1006B00009F110091970604BBF009B6853F82900BD
:1006C0006300411B2F292FD95C49884240F0A48048
:1006D0001C445B4B02372F44043BDB1BC3F34A0330
:1006E0006FEAC3434FF421416FEAD34325F8241046
:1006F00005EB840463804BF60153A380FF2348F08D
:100700000100E671C4F808B0A3714B4B9B6843F835
:100710002900BFF35F8F0023CAE88F3F009B83F35C
:10072000108803B0BDE8F08F20F0010E9EF807108E
:10073000B1422ED84FF42143EB53414BB91C29440D
:10074000043B04375B1A2F44AEF104013D4CC91B36
:10075000C1F34A012143A8F80410C3F34A033A49FC
:100760002343A8F802304AF6AA2073465B1B5B417C
:100770005843000D88F8076088F80600C8F808B0EC
:1007800048F00100CEF80010BFE7D179B1422ED970
:1007900096469EF906C00CEB4C02BCF1000F05EB2F
:1007A0008202F2DA4BF601510EF10402A8F10407BD
:1007B000BF1AC7F34A076FEAC7476FEAD7478EF8F1
:1007C000064003EB0408204C05EB8803AEF80470E8
:1007D00045F82840998083F806C0DE71C3F808B058
:1007E00093E701F053F8124B93F9004059E7724632
:1007F00032F8041F490514D44915023102EB4101B6
:1008000001916FF00701C91B019F491B3944C1F3D6
:100810004A0141F46041C9E7019301F037F8019BB7
:1008200056E701F5FF1101F5FF511F31E4E700BF65
:100830006B820020AC1C002000ED00E01D010010C8
:10084000DC1C002000E0FFFF0148804765340020E9
:100850002DE9F04F83B0EFF3108A72B6744ED6E8EC
:10086000CF2F0123002AFAD1C6E8423F002AF6D151
:10087000BFF35F8F6F4B00F110089B686E4A53F80F
:10088000285095423FD08D420C464AD06B4FEB1B0F
:100890002F2B38D801214FEA50194FEA890909F165
:1008A000604909F5614900F01F0301FA03F0D9F826
:1008B0000030C9F8800000EA030BBFF35F8FEFF34D
:1008C0000581C9B279B3884577D125F0010EDEF8EC
:1008D00008C0644505D17CE0D3F808C0644532D037
:1008E0009E469EF9062002EB4203002A07EB830393
:1008F000F2DA644500F08180BBF1000F20D0C9F826
:100900008001C9F800004B4B9B6843F82850BFF3A7
:100910005F8F0023C6E88F3F8AF3108803B0BDE8DD
:10092000F08F1546EFE725F0010EDEF808C06445AC
:10093000D7D19EF906407346002C08DA154666E0CA
:10094000C9F88000DFE793F90640002C56DB04EB82
:10095000440C07EB8C0CDCF8082061009A609CF8D2
:100960000720DA719CF90620002A9A715DDBBCF839
:100970000420520504D502F5FF1202F5FF521F3282
:10098000521502F1020C4FF0040E0C2212FB04E28D
:1009900002EB4C026FF0070C3A44ACEB030C6244E0
:1009A000C2F34A0242F460429A80254B21441A78ED
:1009B00007EB81011C708A719EE7CDE9000100F010
:1009C00065FFDDE9000125F0010EDEF808C0644591
:1009D00087D19EF906407346002CB8DA194A1A4CA2
:1009E000D21A083AC2F30A316FEA01516FEA115183
:1009F00044EA5202DA8099807EE773460029EDD1FD
:100A0000FF228EF806204BF60152AEF804200C4C63
:100A10004AF6AA2294F800C01946C91B49414A4324
:100A2000120D83F806C0227066E74BF60152BBE751
:100A30006534002000ED00E01D010010AC1C00201A
:100A40006B820020E61C002000F8FFFFF0B5EFF3FA
:100A50000585EDB2EFF3108C72B62649D1E8CF2FA1
:100A60000123002AFAD1C1E8423F002AF6D1BFF3A0
:100A70005F8F214E40F0010EB4684AF6AA2354F865
:100A800025701E4A0446A41A644163431B0D774532
:100A90005BB21BD092F906409C421CD092F91240E6
:100AA0009C4223D092F91E409C4221D092F92A40C8
:100AB0009C4208BF03240FD0114A002415781370FC
:100AC0008571C1E88F4F8CF31088F0BDB2680D4C72
:100AD00042F82540F0E7002404EB440402EB8402D2
:100AE000FF2494714BF601549480E5E70124F3E769
:100AF0000224F1E76534002000ED00E0AC1C00208A
:100B00006B8200201D01001010B5074C82B0014619
:100B10000523002200940548FFF794FC0028A8BF95
:100B2000C0F1330002B010BD847001106F8200204C
:100B3000014B0B44036070475C34002070B5104CCF
:100B4000104DAC420ED2FF26236863B1FFF7C8FCFC
:100B500001462046FFF7ECFFA680BFF35F8F083405
:100B6000AC42F1D370BDFFF7BBFC01462046FFF756
:100B7000DFFF2671BFF35F8F0834AC42E4D370BD52
:100B8000182800203828002010B50446FFF7A8FCDC
:100B900001462046FFF7CCFFFF232371BFF35F8F91
:100BA00010BD00BF10B504460120FFF7A5FC034BA4
:100BB00003442360BFF35F8F10BD00BF5C3400208F
:100BC000024B0B440360BFF35F8F70475C3400201F
:100BD0000D4B1A68EFF3108172B6D2E8CFCF012027
:100BE000BCF1000FF9D1C2E84C0FBCF1000FF4D1F9
:100BF000BFF35F8F00221B68C3E88F2F81F310883B
:100C000040BF002000217047C0810020000000008C
:100C10002DE9F04F2DED028B85B0EFF30583DBB2AC
:100C2000103B9A0818BF01224FF0010103F00300A6
:100C300018BFAB4DAB4B08BFAB4D00EB820201FAC6
:100C400000FB53F8226005F541539FEDA38B019003
:100C5000C3F804B0CDF800B02AE0B388180440F11E
:100C60008C80B379002B40F0D580B6F908100029AC
:100C7000C0F21581736901EB410103EBC103D3E9B4
:100C80000247B7F1FF3F08BFB4F1FF3F09D0019B16
:100C900005EB8301AB6A0A69D21AE31A934238BFA3
:100CA0000C61284600F09AFBA042B941C0F2F780DF
:100CB000B6F90840009B002CEB63CEDBD6F814900D
:100CC00004EB440A284609EBCA07D7E902B800F04A
:100CD00085FB584571EB0801BFDBB8F1000FC0F28E
:100CE000C180D7E90431814A934200F0EA807A88D2
:100CF000B6F9080092B242EA0040984702460B4615
:100D000052EA030100F0AE80002B80F2CE80BBEBF4
:100D1000020B68EB030839F93A30C7E902B8002B37
:100D20009BDB716903EB430201EBC202D2E9027063
:100D3000BB4578EB000C4FEA43028EDBB4462CF83F
:100D4000083F0BE031F93230F446002B0DDB03EBAA
:100D5000430001EBC0005A00D0E90270BB451A44C1
:100D600078EB000001EBC20EECDA29F83A30ACF86F
:100D70000040B38818043FF574AF3369EFF3108275
:100D800072B6D3E8CF0F01210028FAD1C3E8401F83
:100D90000028F6D1BFF35F8F4FF6FF74B0880023B1
:100DA000316900B2B480C1E88F3F82F31088984265
:100DB000FFF657AF0746A946746906F1080807EB26
:100DC000470E04EBCE03D3E90250B6F90830C4460F
:100DD000002BA8BFB34605DA0FE034F93A30944649
:100DE000002B09DB03EB430A04EBCA02D2E90261E0
:100DF000B54270EB0101F0DA5E46ACF8007034F9F0
:100E00003E7024F83E30002FD9DAB3794D46002BDE
:100E10003FF42BAF0023B371B6F9083006F1080890
:100E2000591C3CD01946776903E080465A1C3FF4B0
:100E30001EAF03EB430207EBC200B0F802C01C4632
:100E40001CF4004F9E4637F93230EED08C4280EDD4
:100E5000028B05D0A8F80030318927F83210348190
:100E60007146E3E739F83A3033813369EFF31082A2
:100E700072B6D3E8CF0F01210028FAD1C3E8401F92
:100E80000028F6D1BFF35F8F7388316929F83A30B3
:100E900000237480C1E88F3F82F31088DDE640BFF5
:100EA00005B0BDEC028BBDE8F08F2846CDE90223EA
:100EB00000F094FA029A039B10EB020B43EB01083B
:100EC00029E708460B69029198470028CAD0029981
:100ED000D1E9002314E700BFFFFFFFFFFFFFFFFF83
:100EE00000800B409481002000000B40110C00108A
:100EF0002DE9F84F364C25692DB1BDE8F84F0A2190
:100F00003448FFF715BEDFF8E4800321404600F0C7
:100F100053FA0326C4F80C80FFF7E2FA4FF0504C66
:100F20002D4B267003442361DCF800300F216370E1
:100F3000636961801D834FF00405A3F878504FF07A
:100F40000505A3F890504FF00605A3F8A8504FF000
:100F500007050E214FF6FF7208274FF00A0EA3F87F
:100F6000C0504FF001094FF00C0C4FF0020B4FF046
:100F7000090A0D204FF00B05A3F868111749A2804C
:100F8000A3F808E1A160A3F848B0A3F8F0A0A3F883
:100F90002051A3F838C1A3F85001A3F83090A3F86A
:100FA0006060A3F8D8701A800D4B3046C8F82070E6
:100FB0000C49DC60FFF728FB49463046FFF7E0FAB2
:100FC000094B0A211F640348BDE8F84FFFF7B0BD85
:100FD000F41C0020C08100205C340020FFFF1000C2
:100FE00094810020110C001000200B4000000B40E9
:100FF00000487047F41C0020F8B59DF820700446A6
:1010000016461D4637B900F0F1F9864265EB01013D
:1010100000295CDB2369EFF3108772B6D3E8CF1F9A
:1010200001220029FAD1C3E8412F0029F6D1BFF3EC
:101030005F8FB4F902C063690CEB4C01BCF1000F87
:101040004FEAC10203EBC10138DB985A4FF0000EA2
:1010500060802069C0E88FEF87F310880698C1E9A7
:10106000026508610798486148880130C0F30E00A6
:10107000012838BF0120488040EA0C402169EFF385
:10108000108572B6D1E8CF7F0126002FFAD1C1E8D2
:10109000476F002FF6D1BFF35F8FA1889952A4F854
:1010A00004C02369C3E88FEF85F310880122E36849
:1010B000217803F501538A405A60F8BD0023226964
:1010C000C2E88F3F87F310884FF0FF30F8BD3846F5
:1010D000F8BD00BF0146F0B50069EFF3108772B6A6
:1010E000D0E8CF5F0124002DFAD1C0E8454F002D94
:1010F000F6D1BFF35F8FB1F902E04C690EEB4E0CF5
:10110000BEF1000F4FEACC0504EBCC0C3DDB605B7D
:10111000002648800869C0E88F6F87F31088BCF804
:101120000200CCE902230130C0F30E00012838BFD1
:101130000120059BACF80200CCF81030069B40EA79
:101140000E40CCF814300B69EFF3108272B6D3E87E
:10115000CFCF0127BCF1000FF9D1C3E84C7FBCF120
:10116000000FF4D1BFF35F8F8B886353A1F804E0C5
:101170000B69C3E88F6F82F310880122CB6809786E
:1011800003F501538A405A60F0BD00230A69C2E8A2
:101190008F3F87F310884FF0FF30F0BD0346408942
:1011A000B0EB214F37DD58690A1402EB420210B54B
:1011B00000EBC2001C69EFF3108C72B6D4E8CFEFDD
:1011C0000122BEF1000FF9D1C4E84E2FBEF1000F8D
:1011D000F4D1BFF35F8F428889B292B28A4207D0BE
:1011E00000221B69C3E88F2F8CF31088002010BDEC
:1011F00042F4004242800121002218699971C0E83E
:101200008F2F8CF310881C78DA68084602F501539A
:10121000A140596010BD0020704700BF4078704762
:101220002DE9F041861F41F1FF35B04271EB050316
:1012300038BF002682B038BF354604460F4600F05E
:10124000D5F8301A65EB0103012873F1000306DAC3
:101250002046394602B0BDE8F04100F003B900F085
:10126000C5F8864265EB010100290ADB0021174B16
:101270003246009316482B460191FFF72BFF0028BA
:10128000E6DB4FF0000C1348134A436A9D4204D832
:10129000816AB142DCD29D42DAD11368EFF310814A
:1012A00072B6D3E8CF8F5FF0010EB8F1000FF8D11E
:1012B000C3E848EFB8F1000FF3D1BFF35F8F1368B5
:1012C000C3E88FCF81F3108820BFDEE7D10B001079
:1012D000F41C002000000B40C081002010B5044623
:1012E00000F084F84FF47A734FF0FF3C6FF0004247
:1012F000E4FB0301BDE81040844572EB01033CBFF1
:1013000060461146FFF78CBFF0B506460D4683B028
:10131000EFF30584E4B2002C35D1244F3A78F96814
:1013200004328B6A51F82220D21AC31A934207D38F
:1013300020BF1F4B586AA8421FD2002003B0F0BD47
:1013400000F054F8864265EB0101002911DB194BCE
:101350003846CDE9003432462B46FFF7BBFE011E6E
:1013600007DD134B5A6AAA4219D220BF0F48FFF774
:1013700015FF0F4B586AA842DFD39B6A9E4209D8DB
:10138000012003B0F0BD0A4B586A8842D5D39B6A4E
:10139000B342F5D2401B18BF012003B0F0BD9B6AD9
:1013A0009E42E3D9AA42E1D1DFE700BFF41C00204E
:1013B00000000B40D10B001010B4054B054C064A41
:1013C000A04214BF1846581C5DF8044BFFF70EB836
:1013D000D03A002000800B40A07001100346416A03
:1013E0000A46986A596A8A42FAD17047034B596A89
:1013F0000A46986A596A9142FAD1704700000B4038
:1014000010B4174A536A9C46946A536A6345FAD1EA
:10141000001959414FF0000228BF01220346CAB10A
:101420000F4B596A4B1C08BF0B4608D04FF0FF31D9
:101430000B460B48426A8A42FCD38A4207D1084ACB
:1014400002E0506A884202D1906A9842F9D35DF86E
:10145000044B7047024A526A9142EAD8EDE700BF56
:1014600000000B40074A536A9942FCD8994207D1C1
:10147000044B02E05A6A914202D19A6A8242F9D33D
:10148000704700BF00000B4010B5002314464FF416
:101490007A7215F085FD034BC4E9000103FB02F2EB
:1014A000A26010BD40420F00F8B5054606200E466A
:1014B00000F0E4F8002842D0354A3648954214BF7F
:1014C0004FF080624FF00062334B344902601A6083
:1014D0008C6832EA0404FBD12D4B4FF48071EB1A77
:1014E000B3FA83F32E4A5B09062022F8131000F0AA
:1014F000C5F8C300B3FBF6F30133DA0920D1402667
:1015000001216962AA622F6BFB0722D42B460022BD
:1015100053F82C1F062003F5805422602F6300F03F
:10152000ADF840F2013103228000B0FBF6F0EB6A27
:1015300083F0700303F07E0323602963AA64F8BD7F
:101540004FF6FE718A421BD922464FF6FF71154EA7
:10155000D7E740F2013205F540531A636B6AAC6A73
:10156000062004EB831400F089F80F4BA402A3FBC0
:101570000023DB0A0021B4FBF3F0FFF741FFC5E7CE
:10158000C3F34503114603EB82161A46B9E700BFC1
:10159000008007400020024000300240000002406E
:1015A00040820020C0FF3F00757B2B8F00EB400C7A
:1015B0004FEA8C0C0CF1804C0CF5803CF0B51646D3
:1015C000DCF80420051FB2F5803F38BF4FF48032AD
:1015D000EDB238BFCCF80420012D2AD94FF40067B2
:1015E000254C0CF54052176054F82020B2B9DCF8B5
:1015F0000020012D82EA461202F0E0020CF580562E
:1016000032602AD94FF4006144F820304FF480331F
:101610000CF500521160CCF80430F0BD6769B7FBDF
:10162000F2FE0EF1010E0EEB4E0EBEF1030EFCD2D9
:10163000DDE70129D2D103240CF540521460DCF817
:101640000820D207FBD5DCF800200B4C82EA4612BA
:1016500002F0E0020CF5805632600122DCF8005006
:101660004D4005F00305356002FA01F1DCF8082071
:101670000A42FBD0C6E700BFD83A0020014B53F81E
:1016800020007047D83A002070B4039D04682D03F1
:1016900045EA03451B4B002CB3FBF1F3B2FBF3F619
:1016A0001FDB194A194B904214BF4FF480424FF48C
:1016B0000042174C1A6003F580531A60A36832EA9F
:1016C0000303FBD1212200F54053043301608660FF
:1016D0001A600268002AFCDA0822C5601A6070BC31
:1016E0007047036803F03F038B42DAD18368C3F38A
:1016F0000B03B342D5D1C36803F4EE23AB42D0D180
:10170000EDE700BF001BB70000800540002002404D
:101710000000024030B44FF080441C4B1C60E0B12C
:101720001B4CA3F54053DC611A4C40F001004440CF
:101730001C62596298624FF080454FF0E061134B94
:101740001548164C1D60846019604AB930BC4FF0D2
:101750000042A3F580531A607047114BD861EAE745
:101760004FF47A7303FB02F2B2F1807F2ABF6FF06D
:101770007F4313461A464FF080410A4C08482360C5
:10178000094B426030BC1960704700BF00B00D408B
:10179000D3C007B02D3FF84F00A00140F3FFFF0179
:1017A00000800D406C81002000A00D40012300EB63
:1017B0004000800000F1804000F58410416003602B
:1017C000704700BF002370B5DB8A04460D46002237
:1017D00042E800F2520254BF1021042144F2522088
:1017E000984786462B462246F446BDE870400A21BB
:1017F0004FF48170604700BF0023DB8A002242E87B
:1018000000F2520201D4102118470421184700BFEA
:1018100008B503460846191E02DB1AB140F0300035
:10182000FFF7D0FF40F02000FAE700BF034AD2F8EC
:101830002838002BFBD0BFF35F8F704700000E40AD
:101840000021044B044ABFF35F8F43F8041B93420B
:10185000F9D170470C080E402C080E4010B42F2010
:101860004FF42A64054A064B06491460D06019609B
:101870005368002BFCDA5DF8044B7047008004408D
:1018800000A0044000B0FA00704700BF08B501484E
:10189000FEF778FDC470011038B5054C054DAC421B
:1018A00004D254F8043B9847AC42FAD338BD00BF89
:1018B000087001104870011038B5054C054DAC4258
:1018C00004D254F8043B9847AC42FAD338BD00BF69
:1018D000347001104870011010B40748074C084BD1
:1018E000084A094904601A608B6832EA0303FBD195
:1018F0005DF8044B704700BF002002407F3BEFEFD4
:1019000000300240F6FFF30300000240044BDB6CA2
:10191000B3F5004F03D14FF48022024BDA647047D5
:1019200000001150002011504FF0E022044BD2F87B
:10193000881D0B43C2F8883D10EE3004704700BF8D
:10194000030330006FF06041044B054A196093684F
:10195000DB4333F06043FAD1704700BF00300240F0
:101960000000024010B545F25320FFF745FFBDE8E7
:10197000104003460420184710B545F25320FFF7E6
:101980003BFFBDE81040034601201847FEF7CCBDE1
:1019900010B5054B054C4FF488721846A16812F03B
:1019A00083FFA06010BD00BF0000002000ED00E03C
:1019B000002370B52B4C82B0C4F88430FFF74EFF83
:1019C0000122294BDA63636C012BFCD10321264AE7
:1019D000244B11639C6B012CFCD10226052521466A
:1019E0000523224A22480096FFF74EFE21462B4649
:1019F000204A21480095FFF747FE00220420314687
:101A00001E4BFFF7D3FD2146284600221C4BFFF753
:101A1000CDFD0022082011461A4BFFF7C7FD00221A
:101A200009201146174BFFF7C1FD00220620114681
:101A3000134BFFF7BBFD0022114B07201146FFF7A8
:101A4000B5FD0420FFF71AFE00240F4BA3FB003561
:101A5000AD0CE0B229460134FFF7A8FE062CF8D100
:101A600002B070BD0000014000300140002F6859F5
:101A700000000540008C864700800540001BB70031
:101A800080D1F008006CDC0283DE1B4386B003B417
:101A900051FC0804CDE9020151FC0904CDE904011F
:101AA00051EC0A04CDE9060103BCF047BDE8005043
:101AB0004EEC00C4BDE800504EEC01C4BDE800503F
:101AC0004EEC02C400BD000000B5FFF7DFFF02E0EE
:101AD00010FE30F4F8D441EC100443EC112400EE75
:101AE000010410EE010480EE200451EC1004704754
:101AF00000B5FFF7CBFF02E010FE30F4F8D441EC64
:101B0000100443EC112400EE010410EE210480EED9
:101B1000200451EC3004704700B5FFF7B7FF02E036
:101B200010FE30F4F8D410B541EC100443EC11244D
:101B300051EC040453EC0524A0FB024C5FF0000EB2
:101B4000E0FB03CEE1FB02CE4CEC20440024E1FBA1
:101B500003E444EC30E480EE200451EC5004BDE892
:101B60001040704700B5FFF791FF02E010FE30F41F
:101B7000F8D441EC100443EC112451EC2104A0FBF7
:101B800001126FEA820252FB100052FB12F252FB6A
:101B90001000A0EBD07C53EC04245CFB13F153EC5D
:101BA0001524A1FB022001FB030053EC4424A2EB0B
:101BB000000050FB1CF24FEA111312EB017043EBD3
:101BC000E27140EA515020EA915020F0070053ECB6
:101BD0007524A0FB023C53EC752400FB03CC01FBF5
:101BE00002CC53EC0424ACEB824C40EA5C70A0F1D4
:101BF000010041EC400480EE200451EC7004704779
:101C000000B5FFF743FF02E010FE30F4F8D441ECDA
:101C1000100480EE220410EEB204704700B5FFF706
:101C200035FF02E010FE30F4F8D440EC700400EE12
:101C3000010410EE210480EE200451EC30047047C2
:101C400000B5FFF723FF02E010FE30F4F8D440ECBB
:101C5000600400EE010410EE210480EE200451EC3B
:101C60003004704700B5FFF711FF02E010FE30F4BA
:101C7000F8D441EC800400EE010410EE010480EE83
:101C8000400410EE1304704700B5FFF7FFFE02E0BA
:101C900010FE30F4F8D441EC800400EE010410EEA4
:101CA000010480EE400410EE3304704700B5FFF7E6
:101CB000EDFE02E010FE30F4F8D441EC100443ECE9
:101CC000112400EE010410EE3004C0F300707047E0
:101CD00000B5FFF7DBFE02E010FE30F4F8D443EC71
:101CE000102441EC110400EE010410EE30F48CBF1E
:101CF00001200020704700BF00B5FFF7C7FE02E0DB
:101D000010FE30F4F8D441EC100443EC112400EE42
:101D1000010410EE30F42CBF01200020704700BFFA
:101D200000B5FFF7B3FE02E010FE30F4F8D441EC4A
:101D3000100443EC112400EE010410EE30F48CBFCB
:101D400001200020704700BF38B50446094815F04F
:101D500033F9204611F03AF90546064815F01CF90A
:101D60002DB1054B2C449C4201D8284638BD034870
:101D7000FEF708FB1828002000000820D070011092
:101D800038B505460C460A4815F016F9284621468E
:101D900011F0E2FB0546064815F0FEF82DB1054BA3
:101DA0002C449C4201D8284638BD0348FEF7EAFA85
:101DB0001828002000000820D070011038B5044613
:101DC000054D284615F0F8F8204611F007F9284689
:101DD000BDE8384015F0E0B8182800209A4238BF16
:101DE00088547047704700BF2DE9F04F83B0994683
:101DF000DDE90DAB0F9B884611469A07074616D1C1
:101E0000DA453AD20C460D46ABEB0A060E442246A2
:101E10004B46414620200134B847B442F7D1294609
:101E2000BAF1000F08D1204603B0BDE8F08F0C4690
:101E3000BAF1000F10D00E4655460C9B2E449A4422
:101E40000191721B4B46013D41461AF8010D344683
:101E5000B847002DF5D101990F9B9B07E3D5651A73
:101E6000AB45E0D922464B46414620200135B847D4
:101E70005D4504F10104F5D3D5E7BAF1000FDAD1DD
:101E80000C46D0E72DE9F04F0F9FDDF824E017F066
:101E9000020F0A9C9DF82C900E9DDDE90C8629D13D
:101EA000002D6FD1B44225D2202C07F0010B00F099
:101EB000128104F1FF3C4FF0300AF44401E0202C81
:101EC0007AD00134A6420CF801AFF8D8BBF1000F6C
:101ED00010D0AC420ED2202C74D004F1FF3C4FF055
:101EE000300AF44401E0202C29D00134AC420CF833
:101EF00001AFF8D117F0100F3AD017F4806F28D146
:101F00001CBBB8F1100F00F0CA80B8F1020F00F04E
:101F1000D48030248EF800400124B9F1000F67D13D
:101F20007E0740F1AA802B260EF804600134CDE92B
:101F30000B57CDE909E4BDE8F04FFFF755BFFC06AC
:101F400040F189807C0535D42024A6426AD0AC4279
:101F500068D0B8F1100F00F08780B8F1020F5AD0A6
:101F6000202CE4D0264601344FF0300C0EF806C089
:101F7000202CD2D1CDE90B57CDE909E4BDE8F04FD3
:101F8000FFF732BF17F0010B3ED0B9F1000F47D178
:101F900017F00C0F44D1B4429BD2202C89D1202DB4
:101FA00010D8FC0657D57C0555D4202E00F0B980FA
:101FB000202D10D02024CCE7BBF1000F00F0A5802D
:101FC000202DBCD9FC0646D57C0544D4202E00F03B
:101FD000A880202D3FD12C461F26B8F1100F7FD0AE
:101FE000B8F1020FC0D14FF0620C0EF806C0B7E78F
:101FF0002D260EF804600134CDE90B57CDE909E434
:10200000BDE8F04FFFF7F0BEB442BFF473AF202C31
:102010007FF44FAFD6E7202C89D026460134E2E783
:10202000013DB8E7661ED8D1B8F1100F64D0B8F101
:10203000020F7FF46EAF62268EF8006030264446B1
:102040008EF80160B9F1000F3FF46AAFD0E7B8F144
:10205000100F7FF46CAF2024CDE90B57CDE909E4D4
:10206000BDE8F04FFFF7C0BEBE060ED4202CF2D064
:1020700078260EF80460013472E73E077FF557AF0B
:1020800020260EF80460013451E7202CE3D04FF0F5
:10209000580C0EEB040686F800C0013460E7BE065B
:1020A00017D558248EF8004030248EF801400224C1
:1020B000B9F1000F3FF434AF9AE762248EF8004084
:1020C00030248EF801400224B9F1000F3FF428AF0C
:1020D0008EE77824F2E7BBF1000F7FF462AF71E77F
:1020E00017F0200F0CBF4FF0780C4FF0580CA61EC5
:1020F0000EF806C0013C35E7BC06EAD558248EF838
:10210000004030248EF80140DDE717F0100F3FF457
:102110000EAF17F4806F9AD1202E7FF418AF1F26D0
:102120005BE734461F2658E700B9704701F0CABA8A
:1021300010B1D1E900311847704700BF000000001E
:102140002DE9F04F9FB09DED287BDDE92AA558ECE5
:10215000177B83461E460D91109243463A463846F9
:1021600041468DED087B2C9CFFF7A4FD002840F034
:10217000D880384641464FF0FF32754BFFF7D4FD0B
:10218000002840F0CE80384641464FF0FF326FF4D1
:102190008013FFF7A1FD002840F0C380DDE9087837
:1021A0000022384641460023FFF796FD002840F004
:1021B000C081CDE90A78DDE90A2390461F4614F470
:1021C000806308BF4FF0060A139304F4006258EAD4
:1021D0000703119240F0C080002A00F0A2819FED19
:1021E0005A7B00278DED0E7B4FF00009BA45CCBF1E
:1021F000AAEB070A4FF0000A4F46C8BF0AF1FF3AA0
:1022000044F480644D4594BF4FF00008A5EB0908E5
:1022100014F00203119304D0B9F1000F18BF4FF06E
:1022200000083FB1DDE90A01DDE90E23FFF79EFC5E
:10223000CDE90A01DDE9080100220023FFF74CFD8A
:1022400030B1DDE90A01024601F10043CDE90A237C
:102250009DED0A7BCDE902A8DDF834A024F40063EB
:1022600004938DED007B334651465846109A00F09A
:1022700097F98046B9F1000F4FD014F0200F0246B5
:1022800000F1010433460CBF652045205146D84774
:1022900009F1FF3087EAE77C0DF1580900224B462F
:1022A000DFF8B080ACEBE77C4FEAD77E01E0202A74
:1022B00010D0E246A8FB0C71C90801EB8107ACEB1A
:1022C00047073037BAF1090F8C4602F1010203F8D3
:1022D000017BECD805230590069300200A230D9F6F
:1022E000CDE90330CDE9012E334622463946584622
:1022F000CDF80090FFF7C6FD119B80466BB1109B97
:10230000C41AA54209D94246334639462020013431
:10231000D847A54208F10108F5D840461FB0BDE8EE
:10232000F08F9DED087B33465846109A0D998DED40
:10233000287BCDE92B54CDF8A8A01FB0BDE8F04F05
:1023400000F02EB9AFF30080000000000000000094
:10235000FFFFEF7FCDCCCCCCC7F30A50A0F2FF300B
:10236000FFF760FC8AA3D3E90023FFF7D9FB8AA318
:10237000D3E90023FFF7ACFBC7F31307CDE90E0148
:1023800047F07F51404600227B4B41F44011FFF75C
:10239000B3FB6BA3D3E90023FFF7C2FB02460B4656
:1023A000DDE90E01FFF794FBFFF760FC0746FFF73E
:1023B00039FC65A3D3E9002380468946FFF7B0FBCB
:1023C00000226E4BFFF784FBFFF750FC03464946A3
:1023D000404612935EA3D3E90023FFF7A1FB80469A
:1023E00012988946FFF71EFC5BA3D3E90023FFF791
:1023F00097FB02460B4640464946FFF77DFB0246E7
:102400000B4680468946FFF78BFB42464B46CDE99B
:102410000E0140464946FFF75BFB0022CDE914015F
:10242000DDE90E01564BFFF7A1FB0022554BFFF7EC
:102430004FFB02460B46DDE90E01FFF797FB00223A
:10244000514BFFF745FB02460B46DDE90E01FFF756
:102450008DFB42464B468046894600204FF0804126
:10246000FFF74AFB02460B4640464946FFF730FB62
:1024700002460B46DDE91401FFF778FB0022434BCF
:10248000FFF726FB129B002203F2FF3C4FEA0C539E
:10249000FFF746FB80468946DDE90A0142464B4686
:1024A000CDE90E89FFF718FC68BB4346494607F1A2
:1024B0006302C62A119A8CBF4FF005094FF0040938
:1024C000002A3FF49FAE0B433FF48EAEDDE90A01D4
:1024D00023A3D3E90023FFF713FC48B1DDE90A0188
:1024E00021A3D3E90023FFF7F7FB00287FF47CAE9C
:1024F000BAF1000F3FF486AE139B002B3FF482AE7F
:102500000AF1FF3A7EE600221E4B40464946FFF79D
:102510002DFB0A4601460346CDE90E12013F114646
:10252000C5E79FED137B17464FF004098DED0E7B39
:1025300068E608F100430A970B933CE6AFF300808E
:1025400061436F63A787D23F71A379094F930A4014
:102550001655B5BBB16B0240EF39FAFE422EE63F8D
:102560002D431CEBE2361A3F0000000080842E4110
:1025700000000000000000000000F83F0000E03F05
:1025800000002C4000002440000018400000F03FF4
:10259000FB799F501344D33FB3C8608B288AC63F52
:1025A0002DE9F04F97B0DDE92089CDE90401DDE99F
:1025B000224BCDE90623404642464B464946DDF8CC
:1025C00090A0FFF777FB002840F0C58140464946C0
:1025D0004FF0FF326FF48013FFF77EFB002840F0CE
:1025E0001D81404649464FF0FF32C14BFFF79CFB2F
:1025F000002840F0E380B8A3D3E9002340464946D1
:10260000FFF792FB002840F0CB80B5A3D3E900236D
:1026100040464946FFF760FB002840F0C180404635
:10262000494600220023FFF757FB002840F0E080D6
:102630001AF480650D9000F0E980092C40F2968133
:102640000EAB1A460C9330210023A4F10905013387
:10265000202B02F8011BA4EB030600F03A81AB42E9
:10266000F5D19FED9D7B8DED087B49464046FFF7F8
:10267000FDFA0446FFF7D6FA02460B4640464946A5
:10268000FFF73AFADDE90823FFF74AFA02460B465C
:10269000CDE90A23FFF7FCFA0746FFF7D5FA024611
:1026A0000B46DDE90A01FFF727FA02460B46CDE9A2
:1026B0000A2300228F4BFFF737FB002800F0DB8056
:1026C00001373846FFF7C0FADDE90823FFF718FBAA
:1026D00008B100270134002E40F0B1802046FFF7FA
:1026E000A1FA02460B4640464946FFF705FA00228A
:1026F000804B06460F46FFF7EFFA40B930463946A1
:1027000000227C4BFFF710FB002800F015810C9B8A
:10271000691E7948194410E080FB0462C3EBA203F0
:1027200003EB8302A4EB420404F1300201351C46A2
:1027300001F8012F002B00F0AB80202D4FEAE4734D
:10274000EAD10AF00303012B1CD1BBF1000F19D011
:102750000D9B002B40F0F9801AF00C0F40F0F58033
:10276000AB4540F2D380202D0BD030220C996B1E4C
:102770000B4401355D4503F8012F00F08D80202DBD
:10278000F7D12025DDE90623DDE904010C9CCDE924
:1027900002BA01950094FFF727FB17B0BDE8F08F50
:1027A000CDE92089DDE90623DDE90401CDE923BA7D
:1027B000229417B0BDE8F04FFFF7C2BC4F4DCDF8E3
:1027C0008CA00AF0040ABAF1000F4D4C18BF2C4639
:1027D000DDE90623DDE9040120940CBF0324042471
:1027E000CDF888B0219417B0BDE8F04FFFF7FCBAE0
:1027F0004B46424600200021FFF77EF901231AF4E0
:102800008065804689460D937FF417AF9FED367B38
:102810000EAB06268DED087B0C9326E70424DDE93C
:102820000623DDE90401374DCDF88CA0CDF888B042
:102830002095219417B0BDE8F04FFFF7D5BA0C9B57
:10284000681EDFF8C4C018440DE0ACFB0721C908BE
:1028500001EB8102A7EB42023032092F00F8012F71
:1028600027D90F461D46202D05F1010306F1FF363D
:10287000EBD120254BE70022DDE90A011D4BFFF7D4
:102880002BFA00287FF427AF002F5AD1013722E717
:102890000AF00303012B75D0202D3FF473AF0D9B7D
:1028A000BBB32D2205F158036B4403F8202C0135EE
:1028B00068E7202BDDD0AEB30C9A1E4415443022BD
:1028C00001E0B3422ED00133202B05F8012FF8D1BF
:1028D000CFE71D46C5E600BF0000000065CDCD4135
:1028E0000000000065CDCDC10000000080842E41B5
:1028F000FFFFEF7F0000E03F67666666247101100E
:102900002C71011034710110CDCCCCCC202D3FF4B2
:1029100039AF1AF0040F0DD11AF0080F3FF432AF9F
:102920002022BFE72E2103F158026A4402F8201C3E
:102930005D1CECE62B22B5E7E3077FF5E8AE01343A
:10294000E5E6FA077FF5C7AEA0E70BF1FF3BAB4525
:102950003FF609AFA0E70324DDE90623DDE9040122
:102960000A4DCDF88CA0CDF888B061E7084B26461B
:1029700003EBC40393ED007B0EAB8DED087B0025CC
:102980000C9372E6BBF1000F86D0E1E630710110C6
:10299000508101102DE9F04F9A469BB0249C964D32
:1029A0000B94964C0B1E18BF834625609AF80000C6
:1029B000934C0A9308BFA3460992002800F0BC82FA
:1029C0004FF000090AE04A46099B0A9909F10109FA
:1029D000D8479AF80000002800F0CE8025280AF198
:1029E000010AF0D10023524612F8010BA0F1200198
:1029F00010290AD8DFE801F04009093C0909090952
:102A000009090938093409093000A0F13001092900
:102A100040F28C802A2800F0F58000210C912E28AD
:102A200000F099800027A0F1680112292DD8DFE875
:102A300011F057012C0051012C0045012C002C00F5
:102A40002C002C002C002C002C0027002C002C002B
:102A50002C002C002C002700924643F00103C2E713
:102A6000924643F00203BEE7924643F00403BAE7FE
:102A7000924643F01003B6E7924643F00803B2E7EC
:102A80009AF8010043F4807301326728924600F2FD
:102A90008280242840F2C680A0F12502422A00F25A
:102AA000C180DFE812F05F01BF00BF00BF00BF00C0
:102AB000BF00BF00BF00BF00BF00BF00BF00BF001E
:102AC000BF00BF00BF00BF00BF00BF00BF00BF000E
:102AD000BF00BF00BF00BF00BF00BF00BF00BF00FE
:102AE000BF00BF00BF00260145012601BF00BF0097
:102AF000BF00BF00BF00BF00BF00BF00BF00BF00DE
:102B0000BF00BF00BF00BF00BF00BF00D301BF00B8
:102B1000BF00BF00BF00BF00BF00BF00BF00BF00BD
:102B2000D3016701D301260145012601002100E000
:102B3000013201EB810100EB410110789246A0F1D6
:102B40003004092CA1F13001F2D92E280C9102F1A8
:102B500001027FF467AF9AF801001146A0F1300638
:102B6000092E43F4806340F231812A2800F03E812F
:102B700092460027013256E74C46099B994501D3FE
:102B800003F1FF394A460020099B0A99D84720469D
:102B90001BB0BDE8F08FA0F16902D2B20F2A41D874
:102BA000012649F2410196400E4040F001810A2A77
:102BB0003FD0072A36D10B9C54F8042B002A00F092
:102BC000288143F021010DF1480E704603E0202ECC
:102BD00000F029811A4602F00F052B46092D94BFFB
:102BE000303337330F2A00F8013B06F101064FEA74
:102BF0001213ECD817E100BF95290010688100205E
:102C0000E51D00100B9C9AF8010054F8045B9246F5
:102C1000002DBDBF694243F002030C910C950B944B
:102C20000132FCE64A46099B0A9909F10109D84795
:102C3000CFE60B9951F8048B98F800201046002F2E
:102C400040F0E18072B16FF0010C0CF1010C4646CE
:102C5000C44401E0664503D016F8014F002CF9D1B9
:102C6000A6EB080613F4806C02D0BE4228BF3E4695
:102C700013F0020400F08781002A00F02B81BCF1E0
:102C8000000F00F041810B940D964A46DDE909548E
:102C90000E464F4408E02B462146D84718F8010F4E
:102CA00009F1010910B14A464F45F4D131460B9C58
:102CB0000D9E002C40F00E810B918AE69AF80100DF
:102CC0006C287FF4DFAE9AF8020043F440730AF1F7
:102CD0000302DAE69AF8010043F400730132D4E605
:102CE0009AF80100682800F0208143F08003013247
:102CF000CBE6672800F0E780472800F000814528F0
:102D000000F0FF800B9C04930C9B0734CDE9027309
:102D100024F007031C46DDE90931F4E802674A465E
:102D20005846CDE900670B94FFF70AFA814650E652
:102D300046280B9C08BF43F0200304930C9B0734E8
:102D4000CDE9027324F007031C46DDE90931F4E8FC
:102D500002674A465846CDE900670B94FFF720FC0E
:102D6000814636E64A462520099B0A9909F1010960
:102D7000D8472EE60B9A9C0702F1040709F10106D9
:102D800040F1E6801078099B4A460A99D8470C9B87
:102D9000012B40F22C81DDE90954994432462B463F
:102DA000214620200136D8474E45F7D10B9710E633
:102DB0006F2800F08B8040F26581782800F0088150
:102DC0004FF00A0823F01003C44647E0002707EB42
:102DD000870700EB4700A0F1300711F8010FA0F1C1
:102DE0003002092AF3D98A464A1C1CE60B9C9AF841
:102DF000020054F8047B0AF1020A0AF101020B9462
:102E000027EAE7770FE6002A3FF42CAF07F1FF3CF3
:102E10001BE723F0100113F4806241F021013FF41D
:102E2000D2AE0DF1480E08231020059300234A4628
:102E3000CDE9023006915846DDE90931CDE900E6D9
:102E40000497FFF71FF80B948146C2E5582879D004
:102E5000622840F051824FF00208C44613F48060AB
:102E60006DD123F00C0313F4007240F0C2800B9973
:102E700004310D9113F4807140F02E825E060B9A9E
:102E800040F1AA801278002A40F0DA8023F0100383
:102E9000002800F0D58011460DF1480E06930C9BDA
:102EA000CDF80CC0CDE90473019100234A4602938A
:102EB0005846DDE90931CDF800E0FEF7E3FF0D9B50
:102EC00081460B9385E543F400631BE74FF0080848
:102ED000C446C3E70C9B4C46B3427FF6EDAE0F46AB
:102EE0004B44A3EB0609DDE9096522463346294632
:102EF00020200134D8474C45F7D13946DCE643F46D
:102F0000006343F02003FDE60F460B94DDE909540E
:102F10004A462B462146D84718F8010F09F1010906
:102F20000028F5D139460B9CC3E69AF8020043F01D
:102F3000C0030AF10302A8E5044681461DE623F01A
:102F40000D0390E74FF0100843F02003C44685E7D7
:102F50000C9B012B45D9DDE909544E4609F1FF3898
:102F6000984432462B46214620200136D847464514
:102F7000F7D10C9B324699440B9B1878DDE9093157
:102F8000D8470B9725E50C9BB34240F2EE81CDE983
:102F90000D48DDE9095488464B449E1BCDF82CC0F2
:102FA0004A462B462146202009F10109D847B14560
:102FB000F6D14146DDF838800C9BDDF82CC00D9C25
:102FC00098F800205E1C1046002A7FF458AE73E685
:102FD0004FF01008C44641E71D064CBF1288126826
:102FE00051E713464A461878DDE90931D847B1461A
:102FF000DCE60B9C073424F007042246656852F88F
:10300000084B0B9254EA050240F02C8123F0100388
:10301000002800F0278100260DF1480E06930C9B36
:103020004A46CDE904730023CDE900E6CDF80CC093
:1030300002935846DDE90931FEF724FF8146C8E4D2
:1030400013F0200F14BF412061200DF1480E764689
:10305000A0F10A0803E020293FF420AF2246B2FB8A
:10306000FCF40CFB1425E8B2092D00F130058ABFF1
:103070004044E8B2C0B2624506F8010B01F101011B
:10308000E9D20BE723F0100269280D9240F06F811E
:1030900013F4806204D04FF4806223F011030D9387
:1030A0000D9B13F4007640D10B9B03F104080D9B9C
:1030B00013F4807040F09880590640F1C6800B9B55
:1030C00019780C46CB0F002900F0B98022460DF18B
:1030D000480E74461646DFF8A0C201E020280FD043
:1030E0003546ACFB0621C90801EB8102A6EB420282
:1030F0003032092D0E4600F1010004F8012BEDD805
:103100000D9ACDE9010306920C9ACDE904720A23C7
:103110004A4603935846DDE90931CDF800E0FEF751
:10312000B1FECDF82C80814653E40B9C073424F08B
:10313000070421460846636850F8081BDC0F0B9013
:1031400051EA030000F0C3800A46191E48DB13460B
:103150000DF1480EF4460026CDE90E94DFF81882F2
:1031600001E0202E2DD05A1842F10002A8FB02598E
:1031700029F0030505EB9905521B1C469B1A61F1CA
:10318000000508464FF0CC3101FB03F108FB0511A7
:10319000A3FB08531944052305F00109A9FB0339D2
:1031A0009B180A2C03F130034FEA550570F100001B
:1031B0000CF8013B06F1010645EAC1734FEA5101E3
:1031C000CFD2DDE90E940D9B4A4606930C9BCDE9C8
:1031D0000164CDE904730A23CDF800E0039328E7E6
:1031E000524261EB4101B2E70B9B1968CB0F0029FA
:1031F00000F0AB8081EAE172A2EBE1720DF1480EC2
:103200007046DFF874C101E0202E10D01546ACFBEB
:103210000241C90801EB8104A2EB440404F130022D
:10322000092D00F8012B06F101060A46ECD80D9A8B
:10323000CDE9016306920C9ACDE9047267E7002A92
:103240003FF445AF0DF1480E5AE713F0800F0B9B8A
:1032500000F08180B3F9001081EAE174A4EBE1741D
:10326000A4B22FE713F0200F14BF412261220DF109
:10327000480E0A3ACDE90D97CDF844B000267746BE
:10328000F3469146CDE90F3C03E0202E17D00446CB
:103290000D46294642460023204613F079FED2B25D
:1032A000092A02F1300388BF02EB09034445DBB26F
:1032B00075F1000507F8013B06F10106E5D2DE468F
:1032C000DDE90D97DDE90F3CDDF844B0A6E6002A04
:1032D00047D1134611463BE70B990968A1B923F082
:1032E000100388B10DF1480E06930C9BCDF80CC06D
:1032F000CDE904730192D8E513F480627FF4CBAE7C
:1033000023F010030D93CBE613F0200F14BF4120E0
:1033100061200DF1480E7646A0F10A0802E0202A4D
:10332000E2D02146B1FBFCF40CFB1415E8B2092DE8
:1033300000F130058ABF4044E8B2C0B2614506F8EA
:10334000010B02F10102EAD2CEE7002A3FF456AFA8
:103350000DF1480E6BE7196881EAE174A4EBE174A2
:10336000B0E600260DF1480E2DE701362BE64FF0B2
:103370000A081346C44671E5CDCCCCCC84460CB4C7
:1033800010B584B006AC54F8043B0A46009461467C
:1033900004480394FFF7FEFA04B0BDE8104002B001
:1033A000704700BFDD1D001030B594468E460546BF
:1033B0001C4683B029467246634600940248FFF7D4
:1033C000E9FA03B030BD00BFDD1D001070B59446B2
:1033D0001E4605460C4684B04FF0FF32634602A9F4
:1033E00000960348CDE90254FFF7D4FA04B070BD4B
:1033F0003121001010B5094B84B01C684CB1034654
:1034000000914FF0FF3203A90548A047012004B006
:1034100010BD00F099F9204604B010BD688100206D
:103420002921001000BEFDE7074A0346106838B1A5
:10343000064903448B428CBF4FF0FF301360704746
:10344000034908461160F3E7587D0020000008207A
:103450007082002008B5FFF7E5FF00BF38B5064CC5
:10346000064DFEF719FAAC4204D254F8043B9847D3
:10347000AC42FAD338BD00BF48700110547001103F
:103480000368084611461847437D2DE9F0478146F9
:103490000F461646002B43D0002A3BDD037D00205B
:1034A0004D1E014615F8012FDFF884800A2A01F12C
:1034B00001040ED0A6421CD02B782146A3F10D03A7
:1034C000B3FA83F315F8012F5B090A2A01F101040D
:1034D000F0D1002BEED18142A1EB000138441BDC7E
:1034E00002214046D9F800309847A64208D020462D
:1034F000E2E7864204DD311AD9F8003038449847B3
:10350000374417F8013CA3F10D03B3FA83F35B09C9
:1035100089F81430BDE8F087D9F800309847DFE724
:103520003846D9F800301146BDE8F047184700BFCB
:10353000A08101100B682DE9F041802B0D46064655
:1035400005D05A1C2B442A601E71BDE8F0810F4B38
:103550001C68A4B10E4F01F1040801E0246974B1A4
:103560002368002BFAD03B680BB1A342F6D120466A
:1035700041462A68FFF788FF2469002CF0D1002318
:1035800001222B442A601E71BDE8F081283B0020F7
:10359000387B00202DE9F04782B00D4692469946CF
:1035A0000746FDF723FF4FF0FF366FF000442F4A28
:1035B000821841F10003964274EB03013CBF32468E
:1035C00023462B4813F000FD6B1C804603D1384680
:1035D00011F0E0F90546274B274E1C68274BB9F13F
:1035E000000F18BF1E46B4B1BAF1000F1AD1DFF8B0
:1035F000909001E0246974B12368002BFAD0D9F8C7
:1036000000300BB19C42F5D120462A463946B047DE
:103610002469002CF0D1B8F1000F1FD1284602B068
:10362000BDE8F0874FF00A0ADFF8549002E0246901
:10363000002CF0D02368002BF9D0D9F800300BB162
:10364000A342F4D12A4639462046B04701222046FB
:103650000DF107018DF807A0B047E8E7044813F023
:103660009BFC284602B0BDE8F08700BF40420F0037
:1036700020280020283B00208134001089340010CD
:10368000387B00200A4A13684BB1834202D109E01B
:10369000984207D003F110021B69002BF8D101B149
:1036A000106070470029FCD1036913600161704705
:1036B000283B002008B500F0A7F900F0DDFB012051
:1036C00008BD00BFF0B583B006468DF80700FDF7D2
:1036D0008DFE4FF0FF356FF00044174A821841F11C
:1036E0000003954274EB03013CBF23462A4613486E
:1036F00013F06AFC124B07461C689CB1114D01E0A7
:1037000024697CB12368002BFAD02B680BB19C4252
:10371000F6D1204601220DF10701FFF7B5FE24691D
:10372000002CEFD117B9304603B0F0BD034813F0B9
:1037300033FC304603B0F0BD40420F00202800208B
:10374000283B0020387B002038B5044611F022F9D0
:10375000012305461A4620462946FFF71BFF084B62
:103760001C682CB163682BB198472469002CF9D1EF
:10377000284638BD2469002CF4D1284638BD00BF46
:10378000283B00202DE9F041A2B004460D46FDF78C
:103790002DFE4FF0FF376FF00046274A821841F1A7
:1037A0000003974276EB03013CBF3A463346234879
:1037B00013F00AFC00262B4607462246204801A9A2
:1037C0000196FFF703FE019B06467BB91D4B1C6863
:1037D0002CB1636843B198472469002CF9D10FBB21
:1037E000304622B0BDE8F0812469F1E7DFF854806B
:1037F000D8F80050EDB1144C01E02D6975B12B687B
:10380000002BFAD023680BB1AB42F6D12846019ABF
:1038100002A9FFF739FE2D69002DF0D1D8F800403C
:103820000195D5E7054813F0B7FB304622B0BDE857
:10383000F0810195D3E700BF40420F00202800200F
:1038400035350010283B0020387B00200FB400B530
:1038500083B004A951F8040B0191FFF793FF03B063
:103860005DF804EB04B07047B1F1000C1DDD0F4AA8
:103870000F4B126830B5D31AB3FA83F30D240D4DF4
:103880005B09411E35F913E08C4411F8010F8645A0
:1038900006D093699B06FCD461451060F5D130BD1C
:1038A00093699D06FCD41460F3E7704744820020BE
:1038B0000080074040820020224BB1F1000C10B480
:1038C0001C682EDD034600201F4A591E12689369AA
:1038D000DB0617D401309369DB06FCD413688445FA
:1038E00001F8013FF3D14CB150211346916353F8D5
:1038F000342F02F0380203F580531A6060465DF8F9
:10390000044B70474CB150211346916353F8342F48
:1039100002F0380203F580531A6078B15DF8044B69
:1039200070475CB1084B50211A681346916353F8F5
:10393000342F02F0380203F580531A606FF0020052
:10394000ECE700BFBC3A002044820020054B1B6816
:1039500033B10021044A0548126800689163184792
:10396000704700BFBC3A002044820020C43A0020C7
:10397000024B1A6893691B07FCD4704744820020ED
:10398000F8B51C4F1C4D3A681C4EAA4214BF2125A5
:1039900022250446D6F800C018B1BCF1000F10D0A3
:1039A000F8BDBCF1000FFBD0014690632846FCF740
:1039B000E7FD28461249FCF74BFF124B34601C60B0
:1039C000F8BD0B460F4A0E49306028461360FCF7DD
:1039D0001BFE01212846FCF7D3FD3A68502113460F
:1039E000916353F8342F02F0380203F580531A60C4
:1039F000F8BD00BF4482002000800740BC3A002090
:103A00004D390010C43A002010B50E490E4C0F4835
:103A10000F4A104B007821600020022112781B7899
:103A2000FCF71CFC02210120FCF718FC4FF4E131EB
:103A30002068FDF739FDBDE8104001210648FFF779
:103A400021BE00BF000007404482002090C3021046
:103A50008CC3021088C302100C1D0020704700BFE9
:103A60000022014B1A7070476C8200204B79FF2BAB
:103A70000BD1887948B9CB79012B07D1082A05D910
:103A8000034B8A7809201A7070470020704700BFE6
:103A90006C82002001207047012901D0012070476D
:103AA00008B5104B91881B78994201D0002008BDC1
:103AB0005378012B08D0022BF8D10021642208464C
:103AC000FDF728FE012008BD5188CB054BBF4A0AEF
:103AD0004A0A10464FF0FF3002F0010201F07F0168
:103AE000FDF796FE6C82002000487047908201101E
:103AF000012907D15378012B02D19388072B03D0DA
:103B000000207047012070471146A623014A01F0AA
:103B10002FBA00BFE88101100346012201481A7044
:103B2000704700BFC881011008B50B68B3F5966FE8
:103B300000D008BD00224FF0FF301146FDF768FEAF
:103B4000024A034B10601960704700BFC03A002062
:103B5000C83A0020184B70B51A68002A28D0EFF335
:103B6000108172B6D2E8CF4F0120002CFAD1C2E802
:103B7000440F002CF6D1BFF35F8F00220F4C186862
:103B800059602270C0E88F2F81F31088002400252F
:103B90000B4E3078FCF70AFD20B9002400252046A2
:103BA000294670BD3078FCF711FD2046294670BDCE
:103BB0004FF47A740025EBE78C8100206E820020A0
:103BC0006D820020014B1878FCF700BD6D8200204B
:103BD00038B5044600200D4601F0ECFAA8B30020E9
:103BE00001F0FEFA88B3FDF701FC4FF0FF3E6FF0E5
:103BF000004C174A821841F1000396457CEB030103
:103C00003CBF72466346134813F0DEF9E8B100206A
:103C100001F0D0FA58B900214FF0FF3000F000FD5C
:103C20006FF002040B4813F0B7F9204638BD0020AE
:103C300001F0D6FA0028EED021462A46002001F0F5
:103C4000DBFA04460028EDD1EAE76FF00204ECE766
:103C500040420F003882002008B5FDF7C7FB4FF047
:103C6000FF3E6FF0004C0F4A821841F10003964569
:103C70007CEB03013CBF724663460B4813F0A4F98A
:103C800070B14FF0FF30002100F0CAFC002001F0BD
:103C9000FBFA0028F5D1BDE80840034813F07CB9D1
:103CA00008BD00BF40420F00388200202DE9F843D4
:103CB00007460E46FDF79AFB4FF0FF356FF00044C4
:103CC000334A821841F10003954274EB03013CBF73
:103CD0002A4623462F4813F077F908B9BDE8F88340
:103CE000002001F067FA002848D0002E41DD0025B1
:103CF000DFF8A480DFF8A49013E02246002001F052
:103D000009FB002104464FF0FF3000F089FC002041
:103D100001F0BAFAFDF76AFBC8E900012544AE429A
:103D200027DD002001F016FB741B8442A8BF044667
:103D30007919002CE1D121464FF0FF3000F070FCE2
:103D4000204601F0A1FA204601F034FA88B120465D
:103D500001F000FB0028E2D1FDF748FBD8F8003065
:103D6000D8F8042013EB090342F1000283428A4190
:103D7000D5D20848BDE8F84313F00EB90020002161
:103D8000054BC3E90001BDE8F843024813F004B94C
:103D900040420F00388200205031002020A107004F
:103DA00030B5002185B02E4813F01EF9F0B92D4B27
:103DB0001A68CAB1EFF3108172B6D2E8CF5F01245E
:103DC000002DFAD1C2E8454F002DF6D1BFF35F8F29
:103DD000254C1D6822785960D3B201222270C5E8B3
:103DE0008F0F81F31088CBB105B030BD00214FF0AB
:103DF000FF3000F015FC002001F0F2F904461848ED
:103E000013F0CAF8002CEFD0184B1B68002BEBD036
:103E1000174A106805B0BDE830401847FDF7E8F8CC
:103E20000446FDF7E3FA4FF0FF3C6FF0004510F554
:103E30007A7241F10003944575EB030138BF2B46BC
:103E40004FF000014FF0010520460A4C38BF624692
:103E5000CDE901150094FDF7CFF805B030BD00BFE6
:103E6000388200208C8100206E820020C03A002021
:103E7000C83A0020553B00104FF0504330B585B094
:103E80001C68FDF7B5F8FDF7C9F9A04202D0002083
:103E900005B030BD294B1B7801F02EFD2848036882
:103EA000002B47D00120FCF72FFE0346254C264966
:103EB000C0B22370FCF7A8FB20780121FCF760FB5F
:103EC0000E20FCF78FFB40BB204B0125C3E900000F
:103ED000FDF78EF80446FDF789FA4FF0FF3E6FF0CC
:103EE000004C10F57A7241F1000396457CEB03011A
:103EF0004FF000012046164C3CBF72466346CDE9A8
:103F000001150094FDF778F80028C0DB0121114865
:103F1000FFF7B8FB012005B030BD0120FCF7ECFA3B
:103F200001460A48FCF74CFE00220E200A49FCF725
:103F30009BFBEBE7FCF728FEB4E700BF94C302103D
:103F4000388200206D820020A13D00108C8100206D
:103F5000553B0010241D0020C53B00100048704751
:103F60002C83011000487047D882011038B5184BD7
:103F700004461A780AB344B940F209424FF4417337
:103F8000144D6A8013482B8038BD052C1AD8124B6B
:103F9000104D53F8241028460023013903E0132B59
:103FA00020F8022F10D011F8012F0133DBB2002AC4
:103FB000F5D15B0043F44073E4E71121184600F0AB
:103FC00025F8D8E7002038BD4FF44A73DAE700BF80
:103FD00048820020003B0020C082011000B545F25D
:103FE00047308BB0FDF708FC01220346092101A8E8
:103FF0009847DDE90332044912BA1BBAC1E900232C
:104000000BB05DF804FB00BFB8810020012901F16D
:10401000FF3300F0B3805D490A784FEA121C9F2AF3
:104020008CBF0CF1370C0CF1300C012B80F800C068
:1040300000F0A78002F00F02092A8CBF373230321D
:10404000022B427000F09D804A784FEA121C9F2A92
:104050008CBF0CF1370C0CF1300C032B80F802C034
:1040600000F08F8002F00F02092A8CBF3732303205
:10407000042BC27000F085808A784FEA121C9F2AB8
:104080008CBF0CF1370C0CF1300C052B80F804C000
:1040900077D002F00F02092A8CBF37323032062B5C
:1040A00042716ED0CA784FEA121C9F2A8CBF0CF165
:1040B000370C0CF1300C072B80F806C061D002F0F1
:1040C0000F02092A8CBF37323032082BC27158D008
:1040D0000A794FEA121C9F2A8CBF0CF1370C0CF1A5
:1040E000300C092B80F808C04BD002F00F02092ACF
:1040F0008CBF373230320A2B427242D04A794FEAB3
:10410000121C9F2A8CBF0CF1370C0CF1300C0B2BBE
:1041100080F80AC035D002F00F02092A8CBF37326E
:1041200030320C2BC2722CD08A794FEA121C9F2A93
:104130008CBF0CF1370C0CF1300C0D2B80F80CC03F
:104140001FD002F00F02092A8CBF373230320E2BFB
:10415000427316D0CA7911099F2A8CBF373130318A
:104160000F2B81730DD002F00F02092A94BF303259
:104170003732102BC27318BF103002D000230370E7
:104180007047184400230370704700BFB8810020B7
:1041900070B500F02BF90C2340251B4CFF220E209C
:1041A0001A49A367FCF760FA194B002118462A4602
:1041B0000FF0D4FC0346002180200126154A5884C4
:1041C0009A60843A59605E701D831D87C2F884101E
:1041D000C2F8801002F58072DA60DA62803A83F801
:1041E000211083F83B1059629A6212F001FF4FF0E0
:1041F00000504FF480320849084B2664E064C4F84C
:104200009010DA6470BD00BF00001150A5040020BA
:104210005C7D00208400105010D00100002011505F
:1042200001210E20FCF7ACB900220248114600F033
:10423000FDB800BF7C7D0020044B197021B14FF404
:104240000032034BC3F89020704700BF6882002003
:10425000002011500B785B0602D14B78052B00D063
:1042600070474B88014ADBB2136070470000115061
:104270004FF0000C2DE9F0418878354D00F07F02B9
:104280005600CF788B8806EBD01105EB4111C4099D
:104290008870C7F30100C876C3F30A0384F00100F5
:1042A00081F803C00B83487007F00307D10084BB7B
:1042B0002848043105EB821E01EB0008CEF8088087
:1042C00041F800C082B32449D2001144CEF8041052
:1042D00022483F33016823F03F03022F204A08BFE2
:1042E0005B000B44036081EA02085340321905EB7E
:1042F0004212B3F5805FD16027D8264405EB4615FE
:104300006B6848EA876242F0004201201A60BDE80B
:10431000F081DFF840E010B2714405EB8218C8F874
:1043200028104EF830C042B900230E4A05EB441461
:104330000120E2606360BDE8F081D20002F1A0429A
:1043400002F58012C8F82420C2E7FDF79FFAD4E7EF
:104350005C7D00208000105004001050708100200F
:10436000000010500001105012F042BE8C4608B5FB
:10437000114607481A460CF07F034FEADC1C0CEB91
:10438000430C00EB4C1000F051F8012008BD00BFB9
:104390005C7D0020CB0911F07F0103D1064AC3F1F7
:1043A00002009066054803EB41034FF400620021D0
:1043B00000EB431012F004BE002011505C7D002081
:1043C00011F07F0300D17047002210B4C809064CD9
:1043D00000EB430004EB40136FF4006118465DF8F6
:1043E000044BDA7012F0ECBD5C7D00204FF080527F
:1043F00009480A4908B50A4B02600A609968C9432E
:1044000011F08051FAD14FF4805206480FF0A6FB0C
:104410000922054B5A6708BD0020024000300240C7
:1044200000000240000010500000115000234FF027
:10443000010C10B580F81AC08282C3820161044663
:1044400012F0A2FD20B14FF40032074BC3F89020C8
:10445000204612F0A9FD10B10123237710BD20469C
:10446000BDE8104012F084BD002011502DE9F0414C
:1044700000241D4E054623463278DFF878801B4F16
:104480000DE03B6813EB441325D0DB6828469847C2
:1044900032780134E4B2511CA142234606DBA24229
:1044A000A3EB0203EDD808EB4313EEE7104C5422C4
:1044B000002120460FF052FB4FF0FF33251D6360B3
:1044C000C5E90133EB6004F114002022BDE8F0419E
:1044D000FF210FF043BB4FF0E023D3F8F03DDB07A3
:1044E00000D500BEBDE8F081678200203C3400208A
:1044F000C834002040830110704700BF704700BFE0
:104500000020704700207047704700BF704700BF11
:10451000704700BF704700BF024B5878003818BF83
:1045200001207047C8340020024B1878C0F3800087
:10453000704700BFC83400202DE9F8432C4F3B786A
:10454000FF2B02D00120BDE8F8830021542206464B
:1045500028480FF003FB0022274C284B20461A70F6
:10456000FCF712FB264B27481C60274CFCF71AFB74
:10457000204601F083FD254A254B264D146063B388
:104580002846FFF7C9FA244B2A7818600024DFF880
:104590008C902346DFF880800EE0D8F8003013EBD3
:1045A000441311D05B687BB198472A780134E4B298
:1045B000511CA142234612DBA242EED89B1A09EB02
:1045C00043135B68002BEFD14FF0E023D3F8F03DAD
:1045D000DB0700D500BE0020B5E72A78D6E73046D5
:1045E0003E70FFF7D5FD3046FFF71AFEAAE700BF81
:1045F000581D0020C834002080340020698200202B
:104600001C350020501D00203C1D002020350020BE
:10461000193B0010678200203C34002040830110C9
:104620002DE9F04FDFF8C8928BB099F80030FF2BDE
:1046300000F0F180A84CA94DDFF8B0A2DFF8B4B2C9
:1046400026687369EFF3108272B6D3E8CF0F0121A9
:104650000028FAD1C3E8401F0028F6D1BFF35F8FCE
:10466000B261304607A901F057FB00237269C2E826
:104670008F3FB36983F31088002800F0CC809DF849
:104680001D30013B072B00F27D83DFE803F0A7B16B
:10469000959D8E350A04089B002BD1D00998984728
:1046A000CEE79DF8201001F07F0605EB460000EBF9
:1046B000D11090F8343023F0010380F8343090F8B2
:1046C000343023F0040380F83430002E00F0A6804C
:1046D000037D9AF80020934280F09380804A12680C
:1046E00012EB431300F090809E699DF82120099BF6
:1046F0009DF81C00B047A3E79BF80030002B00F0AA
:1047000083809BF80030013BDBB28BF800309BF8D4
:10471000003003F0FF00002B92D1704F9DF81C80F9
:104720003B7843F001033B7097F8343060F30003AB
:1047300087F8343097F8343060F3820387F83430E8
:1047400097F8353060F3000387F8353097F8353047
:1047500060F3820387F8353000F06AFC9DF8203062
:1047600003F06002602A6CD0402A7CD003F01F0363
:10477000012B00F0C180022B00F08180002B60D162
:10478000202A00F0E981002A5BD19DF82130092B15
:1047900057D8DFE813F0B001A2015600C10156005E
:1047A00095016B0156006001F4002B78D9077FF565
:1047B00047AFFFF7AFFE43E7EB78DA077FF540AF8F
:1047C0000898FFF79BFE3BE72B78D8077FF538AFBB
:1047D0002878C0F3C000FFF79BFE31E79DF81C006E
:1047E000FFF744FE00F01AFC9DF82030AB7027E77D
:1047F0009DF81C00FFF73AFE00F010FCFFF786FE64
:104800001EE7501C984211DA4FF0E023D3F8F03D38
:10481000DC0700D500BE0BB0BDE8F08F099B9DF80A
:1048200021209DF81C0000F017FC09E79B1A2D4A77
:1048300002EB431358E7FFF795FB0246002840F0D0
:1048400082814FF0E023D3F8F03DDE0700D500BEB3
:104850009DF81C000021FFF79DFD80219DF81C00A4
:10486000FFF798FDECE6204800F0E2FB012140460E
:1048700008AAFFF73DF900287FF4E2AEE8E79DF8CB
:10488000241011F0700FDCD101F07F0607EB460019
:10489000164B00EBD1101B78007D760001969842F4
:1048A0004FEAD116009659D35E1C8642C0F266814B
:1048B000C01A0C4B03EB4016002A00F063817069AC
:1048C00000F0B6FB01214046736908AA984700280A
:1048D0007FF4B6AEBCE700BF20350020C83400200E
:1048E0003C34002040830110F13A00106782002020
:1048F000581D0020698200209DF824300F2BA7D876
:10490000AE4A3B441B791278934232D3511C9942F0
:104910009EDBAB4E9B1A06EB4316706900F088FBDA
:1049200001214046736908AA984700287FF488AEA1
:104930009DF8203013F060068AD19DF821300A3BA3
:10494000012B85D800F074FB9DF821300A2B00F074
:10495000F281404608A900F0F1FA71E6994B1B6814
:1049600003EB4016002A00F00D81002E3FF470AFDB
:10497000A5E7944A166816EB4316CED168E77B7814
:104980009DF822609E4200F04F817B78002B40F022
:10499000BE817E70002E00F04581701EC0B2FFF710
:1049A000E1FA0346002800F05F814278022A40F0D5
:1049B0005B81C17903F10906C1F340121201C1F311
:1049C000801142EA41123146387820F0300002432B
:1049D0003A705A88CDF80C809A180192019B8B424C
:1049E00040F2A4814A780B2A00F0AF810123042A07
:1049F00040F03A810026019A0096521A92B2029231
:104A00006E4A049312781DE06E4B1B6813EB461838
:104A100000F02A81029AD8F810300398059198473F
:104A200008280246059906F1010303D9029890422D
:104A300080F0FF80DEB2614B00961A78531C9E42D4
:104A400000F31281009BB242A3EB0202DCD85C4B64
:104A500003EB4218DEE77B7840468DF81A300DF103
:104A60001A02012308A900F083FAE9E5BDF8220043
:104A7000030A013B020AC0B20E2B3FF6E9AE01A1C8
:104A800051F823F0994C0010354B0010D54C001014
:104A90005148001051480010B74C0010354B001021
:104AA0005148001051480010514800105148001062
:104AB0005148001051480010514800108B4C001014
:104AC00008A800F0BBFA40469DF82210FFF7ACFBA7
:104AD0003B7843F002033B70B2E5BDF82230012B76
:104AE0007FF4B6AE3B78404623F0080308A93B703C
:104AF00000F024FAA4E540463B789A0802F002024E
:104B0000C3F340131343ADF81A300DF11A02022318
:104B100008A900F02DFA93E5BDF82230012B7FF4AF
:104B200097AE3B78404643F0080308A93B7000F07D
:104B300005FA85E5022A3FF47EAEFFF7E3FC024664
:104B400000283FF485AE4046538808A900F010FACB
:104B500000287FF475AD7BE69DF824300F2B3FF6DF
:104B600077AE164A3B441B79127893421DD2154A00
:104B7000166816EB43167FF4A2AE69E6002A7FF4AE
:104B800067AE00269DF8212002F0FD03012B1BD00B
:104B9000002A7FF456AE019B009A3B44134493F8DD
:104BA00034304046C3F34003ADE7511C9942FFF651
:104BB0004FAE034E9B1A06EB431680E66782002039
:104BC000408301103C340020BDF82230B3B9012AE3
:104BD00099F8000000F08680FFF7DCFB019B009A4B
:104BE0003B44134493F8342042F0020283F834200B
:104BF00093F8342042F0010283F83420002E3FF471
:104C00001FAD706900F014FA7369012108AA4046CB
:104C10009847002000F00CFA97F83530DF073FF591
:104C20000FAD96E6FFF772FC404608A900F086F942
:104C300006E5049B012B00F09E80002B00F08A808B
:104C4000002091F8028005E08CF804605FFA80FC97
:104C500063457FD908EB000C57FA8CFC9CF804E004
:104C60000130BEF1FF0FEFD04FF0E023D3F8F03D5D
:104C7000DA0700D500BE4FF0E023D3F8F03DDB07A4
:104C800000D500BE00237B70E2E5FEF72DFF024653
:104C900000287FF458AFDBE5FFF760F902460028F3
:104CA0003FF4CFAD4046122308A900F061F9002877
:104CB0007FF4C6ACCCE5FFF723FC024600283FF4A6
:104CC000C7AD4046137808A900F052F900287FF4D8
:104CD000B7ACBDE5BDF82410FFF748F9024600283F
:104CE000EFD1B5E50293FFF76BFB019A009B3A44C5
:104CF0001A4492F83410029B63F3410182F8341095
:104D000092F8341063F3000182F8341076E7002142
:104D10004046FFF791FA4046FFF726FBBB78404636
:104D20000093FFF7A3FB009BBB7032E6DDF80C801D
:104D3000FFF7EAFB78E74046012308A90DF11A02C4
:104D40008DF81A6000F014F97AE40A78CB781144EF
:104D50004A784CE6334610480492029100F052FE25
:104D60000E4B049A02991B781144009A0133934226
:104D7000BFF634AE78E7D8F810C00948844508BFBC
:104D800002235DE74FF0E023D3F8F03DDB077FF52A
:104D900057AC00BE54E400BFDC3400206782002022
:104DA0005D5400102DE9F84FDDF82880002A3FD02F
:104DB0000C461E4615464FF0000B1F4FDFF87C9047
:104DC00017E0204699F8021000F0EAFDF8B12146FC
:104DD0005046FFF74DFA08B3A3780BF1010BDA093F
:104DE00016BF0B9A88F8003013702378AB451C442B
:104DF0001ED06378052B11D1E17801F00301B14297
:104E00000CD1A37897F800A013F0700FD9D04FF011
:104E1000E023D3F8F03DDA0700D500BE4FF0E023E1
:104E2000D3F8F03DDB0700D500BE0020BDE8F88FC9
:104E30000120BDE8F88F00BF581D0020C8340020B5
:104E400038B50E4B1D788B7813F0700F08D04FF0EB
:104E5000E023D3F8F03DDB0700D500BE002038BDCD
:104E6000074B0C460846997800F09AFD0028EED0D2
:104E700021462846BDE83840FFF7FAB9581D002002
:104E8000C83400200B46064A06481168DA09343255
:104E900003F07F0302EB4303184400F03BBD00BF67
:104EA0001C350020C83400200B46064A064811680D
:104EB000DA09343203F07F0302EB4303184400F0B5
:104EC00053BD00BF1C350020C834002010B5194C5C
:104ED00001F07F0E04EB4E0404EBD11494F834C0BF
:104EE00015481CF0010F04F13004007808D04FF091
:104EF000E023D3F8F03DDA0700D500BE002010BD56
:104F000094F804C04CF0010C84F804C0FFF72EFAAA
:104F10000028F4D14FF0E021227960F300022271E1
:104F2000227960F382022271D1F8F03DDB07E5D5EA
:104F3000E3E700BFC8340020581D002030B50B4CFB
:104F40008C46A6460546086849680023AEE803007B
:104F50009CF800102846C943C4E90233BDE830403C
:104F60001A4601F08001FFF7B1BF00BF44340020B2
:104F70002DE9F041274F4FF00008BE468C4606460B
:104F800008684968BA60AEE80300A7F80E801546C5
:104F9000BCF80620934228BF1346BB819AB11C4639
:104FA0002BB3DDB197F90030402C28BF4024002BF3
:104FB00028DB414623463046174AFFF787FF68B192
:104FC0000120BDE8F0819CF800101346C94330462B
:104FD00001F08001FFF77AFF0028F1D14FF0E023C4
:104FE000D3F8F03DDB0700D500BE0020E9E71A4604
:104FF000397801F0800123463046FFF767FF00282B
:10500000DED1EBE72246294603480FF04DFC802114
:10501000014AF0E744340020883400200022034B8A
:10502000C3E90022C3E902221A6170474434002018
:10503000014B1861704700BF4434002030B4024671
:10504000044C0025234600685168C4E9025530BC71
:1050500003C370474434002070B53C4CC909227822
:105060000646B1EBD21F1D4682B017D053B14FF0A8
:10507000E023D3F8F03DDB0702D4002002B070BD7E
:1050800000BEFAE72146FFF7E5F823691BB1224687
:10509000032130469847012002B070BD94F90030DA
:1050A000A068002B05DB0028E7D02A4628490FF02E
:1050B000FBFBE089A168E388284480B2294483424D
:1050C000E081A16016D03F2D14D9A28994F9004047
:1050D000131A9BB2402B28BF4023002C26DB9042A2
:1050E0004FF0000130D01A4A3046FFF7EFFE00289B
:1050F000D1D1BCE7236923B102213046134A984736
:1051000058B121780023C94330461A4601F0800186
:10511000FFF7DCFE0028BED1A9E701463046FFF7C5
:1051200039F980213046FFF735F9B4E7904208D0CD
:105130001A46074801930FF0B7FB8021044A019BF0
:10514000D2E780210022CFE70A46CDE74434002091
:105150008834002070B50446FFF7DEF900B970BD51
:10516000FFF7E2F905460028F9D1E378002BF6D0E5
:1051700004F11006304600F0BDFD3F28EFD9284667
:10518000E178FFF77FFE0028E9D0304600F0B2FD5D
:105190003F2808D92846E17804F512724023BDE87B
:1051A0007040FFF793BE2846E178BDE87040FFF7F6
:1051B0007BBE00BF10B50446FFF7AEF908B900206A
:1051C00010BDFFF7B1F90028F9D14FF43272034B4B
:1051D00002FB0433187900F0010010BD38280020CC
:1051E0004FF4327208B5034B02FB003000F068FD4B
:1051F00008BD00BF482800202DE9F8434FF6FF7492
:105200004FF43273A24228BF224603FB00F41D4F25
:1052100004F110053D44284692B200F0C7FD064651
:10522000FFF77AF910B93046BDE8F883FFF77CF94B
:1052300081460028F7D107EB040898F80330002BCB
:10524000F1D0284600F056FD3F28ECD9484698F8A2
:105250000310FFF717FE0028E5D0284600F04AFDAE
:105260003F2809D904F512724846402398F80310E4
:105270003A44FFF72BFED6E7484698F80310FFF7AD
:1052800013FED0E7382800202DE9F0410446FFF74F
:1052900043F910B90020BDE8F081FFF745F9064653
:1052A0000028F7D14FF4327303FB04F4DFF8608079
:1052B00004F124054544284600F002FD0028E9D009
:1052C00008EB04073046B978FFF7DCFD0028E1D091
:1052D00004F52274444428464022214600F066FD2D
:1052E000054680B1034622463046B978FFF7EEFD09
:1052F00038B94FF0E023D3F8F03DDB07CAD500BE44
:10530000C8E72846C7E7B978FFF7CEFDC2E700BF78
:105310003828002038B54FF6FF754FF43273AA4293
:1053200028BF2A460A4C92B203FB00440546204699
:1053300000F0F8FD034620461C4600F0C1FC3F2863
:1053400001D8204638BD2846FFF79EFF204638BDCD
:105350005C2800204FF4327208B5034B02FB00308A
:1053600000F0C8FC08BD00BF5C280020F0B51B4C55
:1053700083B04FF43272002120460EF0EFFB00257F
:10538000FF234FF4E1310822154804F50E7705702C
:10539000009504F110006371A160A27304F138015B
:1053A00001234FF4807200F05BFC01234FF4807204
:1053B00004F59C71009304F1240000F051FC04F505
:1053C00010763846FBF7E0FB3046FBF7DDFBC4E91F
:1053D0000757C4E90C6503B0F0BD00BF38280020B2
:1053E00040340020094B196B49B11A6A12B10022EE
:1053F000C3E907220022C3E90C22012070471A6A80
:10540000002AFAD00120C3E907117047382800208C
:10541000002210B50E4C0F48237802600271DA07A3
:1054200007D59B070BD5BDE8104001210A4800F0C5
:1054300041BE103000F022FE23789B07F3D40648CB
:1054400000F01CFEBDE810400121034800F032BE10
:1054500040340020382800205C280020F0B54B792B
:1054600083B0022B03D00025284603B0F0BD8B7912
:10547000022BF8D1244FBB787BBB8B7806463B7060
:105480000B780925CC18617824290BD1082A02D879
:105490001FE0AA421DD323781C4461782B442429A1
:1054A0009DB2F6D0052920D0042912D163790A2BA8
:1054B0000FD1164B27780193013300930223304616
:1054C0001A46E119FFF76EFC38B10E3517FA85F56B
:1054D000ADB20D48FFF73EFEC6E74FF0E023D3F82C
:1054E000F03DDB07BFD500BEBDE721463046FFF7E4
:1054F000A7FC0028F1D0A3787B7023781C442B44B0
:1055000061789DB2D0E700BF382800203A280020FB
:10551000137803F06003202B0ED170B5274C9388CD
:1055200094F800C09C4509D15378203B032B05D843
:10553000DFE803F00C18200600207047002070BD43
:1055400001292ED0032930D0012070BD01290BD0B4
:105550000329F9D11A4B002BF6D000201949FEF788
:10556000E3FAF1E70129EFD111460723154AFFF7C6
:10557000FFFCE9E7012914D00329E5D15588124839
:1055800005F0010686F00101257100F093FD0F4B37
:10559000002BD9D031460020C5F34002AFF3008084
:1055A000D2E71146FFF7CAFCCEE7094B002BCBD060
:1055B00000205188AFF30080C6E700BF38280020E4
:1055C000293B0010402800205C280020000000003B
:1055D000000000002DE9F047374E0C46F2780746F0
:1055E0008A421D4696F802C03CD08C4513D04FF03D
:1055F000E023D3F8F03DDB0700D500BE0020BDE876
:10560000F0872E4B23B12E4800F06AFB00284FD0C4
:105610002948FFF79FFDB378A34202D00120BDE8DF
:10562000F087284B13B10020AFF300800020FFF774
:105630002BFE0028F2D1244800F042FB0028EDD1D7
:10564000002DEBD015F03F05E8D13846B178FFF7D3
:1056500019FC0028E2D02B462A463846B178FFF7DD
:1056600035FCDBE79AB206F5127106F1100000F086
:1056700059FC164B002BC4D07379FF2BC1D0002DE1
:10568000BFD006F2472808EB050AA8F2372902E046
:10569000C245B6D0737918F8012F9A42F8D148461E
:1056A00000F01EFB0028F3D17179AFF30080EFE723
:1056B000AFF30080ACE700BF3828002000000000F6
:1056C00048280020000000005C28002000000000A6
:1056D00070B5154C84B04FF43372002120460EF0A3
:1056E0003DFA402600234FF48075221D029204F5F6
:1056F000E6721946CDE9002503961A4604F5D470E2
:1057000000F0ACF9002304F1440104F1A800CDE954
:105710000216009001221946019504F1840000F060
:105720009DF904B070BD00BFF035002010B5054CE8
:10573000204600F0BFF9A4F5927000F0BBF90120FB
:1057400010BD00BF98370020002310B5054C04F5AC
:10575000D870237000F092FC04F18C00BDE810407A
:1057600000F08CBCF03500202DE9F84F4B79FF2B71
:1057700002D00020BDE8F88F3A4D0E4695F8A931C9
:105780000C78002BF5D195F88570002FF1D18B782E
:105790000C442B700B79002B3ED0804604EB020B9F
:1057A00005F5D87A05F5D4796378052B09D0A3459A
:1057B00002D831E05C452FD223781C446378052B56
:1057C000F8D1A34528D921464046FFF739FB0028E8
:1057D0003FD0A378DB0923D1504600F04FFCA378DB
:1057E00095F8A81185F8A931A3884046C3F30A03A8
:1057F000A3F50073B3FA83F35B0963F3410185F802
:10580000A811494600F0C4F918B32378317901375B
:105810001C44FBB29942C7D8A11B88B2BDE8F88FDF
:10582000114800F02BFCA37895F884C085F88530EA
:10583000A3880E49C3F30A03A3F50073B3FA83F3F5
:105840005B0963F3410C002085F884C000F068F91F
:10585000DBE74FF0E023D3F8F03DDB0789D500BE4E
:1058600087E700BFF03500207C360020743600202A
:1058700070B51B4C064694F8A9C11D468C4512D044
:1058800094F885308B420CD1164B1BB10020A9B285
:10589000AFF300803046144900F042F9D0B1012046
:1058A00070BD002070BDB4F8B4315BB90F4B23B1AB
:1058B00000200F49AAB2AFF3008030460D4900F036
:1058C00067F9ECE7D4F8AC11AAB204F5D87000F08F
:1058D00029FBEBE72A463046034900F0EDF8DEE706
:1058E000F0350020000000007436002000000000A9
:1058F000F43500209837002008B50020FEF71CFE84
:1059000000B108BD4FF0E023D3F8F03DDB07F8D538
:1059100000BE08BDF8B5037813F001041AD103786E
:1059200005465A07C3F3800701D52046F8BD0E4649
:105930004FF0FF31304611F017FB2B7813F00104C4
:105940000BD12B785B0709D42B78012443F0040397
:105950002B7003E000242046F8BD3C46304611F091
:105960001BFB2046F8BD00BF70B50C4605464FF046
:10597000FF31204611F0F8FA2B78C3F380065B075D
:1059800008D52B7813F0010311BF00262A7863F3A2
:1059900082022A70204611F0FFFA304670BD00BF27
:1059A000C378828803F003000228C2F30A021FD0E2
:1059B000032803D001280AD000207047022914BF11
:1059C00040234FF48063934209D30120704702299A
:1059D00040F2FF3308BF4FF480639342F6D24FF09A
:1059E000E023D3F8F03DDB07E6D500BE002070478A
:1059F000022902D0402AE8D9F1E7B2F5007FE4D0CD
:105A0000EDE700BF0A44914226D291F801C0BCF1F3
:105A1000050F05D091F800C061448A42F5D870475F
:105A200000B591F802C00CF07F0E00EB4E0E4FEA6D
:105A3000DC1C0EF80C3091F800C061448A4209D990
:105A400091F801C0BCF1050FEBD091F800C06144A2
:105A50008A42F5D85DF804FB704700BF2DE9F0419C
:105A60008E4682B0009390F800C0089EBDF8247066
:105A70006EF3000C04461546012331463A4600F801
:105A800008CBBDF82C8000F0EBF806B13FB901203F
:105A90000A9BA4F80280636002B0BDE8F08104F1C3
:105AA0001C063046FBF770F80DB135460026C4E9F8
:105AB0000556ECE701207047F8B50746084640F266
:105AC000FF13154610F8082B0C4612F0020F0CBFFE
:105AD0003F261E4600F0F4F828B925B12E4202D127
